:100000000C942A000C9447000C9447000C94470071
:100010000C9447000C9447000C9447000C94470044
:100020000C9447000C9447000C9447000C94470034
:100030000C9447000C9447000C9447000C94470024
:100040000C9447000C9447000C9447000C94470014
:100050000C94470011241FBECFE5D4E0DEBFCDBF16
:1000600010E0A0E6B0E0E8EAF4E002C005900D92EE
:10007000AC3DB107D9F710E0ACEDB0E001C01D9286
:10008000AD3FB107E1F70E9449000C9452020C9475
:100090000000D19AD9980E946B000E9420010E9412
:1000A000E4008FE79AE1A6E081509040A040E1F79C
:1000B00000C00000A3ECB9E01197F1F700C0000008
:1000C0008CED90E060E20E942602882311F0D99A1C
:1000D000F1CFD998EFCF18BA88EB87BB81E58DB9FE
:1000E0001EB808958FB9779BFECF8FB10895DF9327
:1000F000CF930F92CDB7DEB7C49869830E94720088
:100100008093FC006981862F0E947200C49A0F9030
:10011000CF91DF910895C4980E9472008093FC00F3
:1001200080E00E947200C49A0895EF92FF920F93AC
:100130001F93DF93CF930F92CDB7DEB7162F042F07
:10014000C49879830E9472007981412F572F7A01D8
:1001500006C080E00E947200F70181937F018E2D1E
:10016000811B8017B0F3C49A0F90CF91DF911F913C
:100170000F91FF90EF900895EF92FF920F931F93CE
:10018000DF93CF930F92CDB7DEB7162F042FC4980D
:1001900079830E9472008093FC007981412F572F50
:1001A0007A0105C0F70181917F010E9472008E2DB6
:1001B000811B8017B8F3C49A0F90CF91DF911F91E4
:1001C0000F91FF90EF90089582EE60E00E9477001B
:1001D00087E00E948B00682F87E20E947700C39817
:1001E00080E00E948B00682F616080E20E947700AF
:1001F000C39A089581EE60E00E947700C39880E082
:100200000E948B00682F6E7F80E20E947700C39A65
:1002100008951F93182F87E00E948B0087FF03C06B
:10022000112319F006C0112321F080E563E50E9437
:1002300077001F910895682F85E20E947700089546
:10024000CF92DF92EF92FF920F931F93DF93CF93A2
:10025000CDB7DEB72D970FB6F894DEBF0FBECDBF7A
:100260008FE493EC0197F1F700C0000080E00E945A
:10027000090103EA10E0F8018081806261810E9437
:1002800077000E5F1F4FF0E00B3C1F07A1F734E330
:10029000C32EC98223E4D22EDA8290E1E92EEB82CA
:1002A000EC82FF24F394FD828AE28E010F5F1F4FE0
:1002B000B80145E00E94BC0089E3898388E38A8312
:1002C00087E38B8386E38C8382EC8D838BE2B8019A
:1002D00045E00E94BC00C982DA82EB82EC82FD829A
:1002E00080E3B80145E00E94BC008DE10E948B00D4
:1002F000882321F480E563E70E9477008DE367E0BF
:100300000E9477008CE36FE30E94770081E00E94F7
:10031000090100E610E090E07E010894E11CF11C68
:10032000F80121913191419151918F0129833A83B3
:100330004B835C83892F8062B70144E09D870E94D4
:10034000BC009D859F5F993059F784E8E82E80E0D6
:10035000F82E8E010F5F1F4FF701219131914191CE
:1003600051917F0159834A833B832C83892F80627B
:10037000B80144E09D870E94BC009D859F5F9E3030
:1003800059F7E8E9F0E0D80181918D9380E0E33AF4
:10039000F807D1F78EE28E010F5F1F4FB8014BE0D7
:1003A0000E94BC0086E98A8382E88B838BE18C8380
:1003B0008FED898384E2B80144E00E94BC0089810A
:1003C000897F898384E2B80144E00E94BC00E3EDA8
:1003D000F0E33197F1F700C0000080E00E940901CE
:1003E0000E94E4002D960FB6F894DEBF0FBECDBF7D
:1003F000CF91DF911F910F91FF90EF90DF90CF9001
:100400000895EF92FF921F93DF93CF930F92CDB792
:10041000DEB7182F7B0149830E94FA0087E10E9412
:100420008B00498185FD0AC0812FB7010E94BC0065
:1004300087EA91E60197F1F700C0000080E00F9095
:10044000CF91DF911F91FF90EF9008950F931F932D
:10045000CF93DF93EC0187E00E948B00082F86FF8B
:1004600016C080E60E948B00182F813230F481E69E
:10047000BE01412F0E94950004C082EE60E00E9400
:10048000770087E10E948B0080FFEBCF01C010E076
:1004900087E2602F0E947700812FDF91CF911F911B
:0804A0000F910895F894FFCFBD
:1004A800404B01E2C04B0000D0FC8C02990039415E
:1004B800D996821B24027FA60000000000000000DD
:1004C8000000000000000000000000000000000024
:1004D800007312000080B446412008048120CFF741
:1004E800FEFFFF000F013F023F030304FF050B0659
:1004F800270707080009000CC30DC40EC50FC61155
:10050800201220132014201520162017001C3F1D30
:0C05180007344310100139383736C20098
:00000001FF
