:100000000C942A000C9447000C9447000C94470071
:100010000C9447000C9447000C9447000C94470044
:100020000C9447000C9447000C9447000C94470034
:100030000C9447000C9447000C9447000C94470024
:100040000C9447000C9447000C9447000C94470014
:100050000C94470011241FBECFE5D4E0DEBFCDBF16
:1000600010E0A0E6B0E0E8EAF5E002C005900D92ED
:10007000AC3DB107D9F710E0ACEDB0E001C01D9286
:10008000AD3FB107E1F70E946A000C94D2020C94D4
:100090000000823079F0833018F4813029F406C0F2
:1000A000833061F0843071F080E00895662361F060
:1000B00088E00895662351F08CE00895662341F0AE
:1000C0008EE008958FE0089581E0089583E008951B
:1000D00087E00895EF92FF920F931F93DF93CF93E2
:1000E00000D000D0CDB7DEB70E94EB000E94A00187
:1000F0000E9464018AB3806F8ABB8BB3806F8BBB15
:1001000084B3806F84BB85B3806F85BB84B38F60FD
:1001100084BB85B38F6085BB8FE79AE1A6E08150F1
:100120009040A040E1F700C0000080E08E010F5F2A
:100130001F4F24E0F22E95E0E92E05C0F801E80FEC
:10014000F11DE0828F5F8330C8F320E0A3ECB9E0BB
:100150001197F1F700C000008CED90E060E22C8375
:100160000E94A6022C81882359F08091DE00909194
:10017000DD00F801E90FF11D9081891708F48083F3
:100180002F5F203619F78981BF2DB81B8B2F61E0B7
:100190000E9449008295807F8BBB8A819F2D981B8E
:1001A000892F60E00E94490095B39F7095BB95B37D
:1001B0008295807F892B85BB8B81AF2DA81B8A2FD1
:1001C00060E00E94490095B3907F95BB95B3982B52
:1001D00095BB80E0B3CF18BA88EB87BB81E58DB9BA
:1001E0001EB808958FB9779BFECF8FB10895DF9326
:1001F000CF930F92CDB7DEB7C49869830E94F20007
:100200008093FC006981862F0E94F200C49A0F90AF
:10021000CF91DF910895C4980E94F2008093FC0072
:1002200080E00E94F200C49A0895EF92FF920F932B
:100230001F93DF93CF930F92CDB7DEB7162F042F06
:10024000C49879830E94F2007981412F572F7A0157
:1002500006C080E00E94F200F70181937F018E2D9D
:10026000811B8017B0F3C49A0F90CF91DF911F913B
:100270000F91FF90EF900895EF92FF920F931F93CD
:10028000DF93CF930F92CDB7DEB7162F042FC4980C
:1002900079830E94F2008093FC007981412F572FCF
:1002A0007A0105C0F70181917F010E94F2008E2D35
:1002B000811B8017B8F3C49A0F90CF91DF911F91E3
:1002C0000F91FF90EF90089582EE60E00E94F7009A
:1002D00087E00E940B01682F87E20E94F700C39815
:1002E00080E00E940B01682F616080E20E94F700AD
:1002F000C39A089581EE60E00E94F700C39880E001
:100300000E940B01682F6E7F80E20E94F700C39A63
:1003100008951F93182F87E00E940B0187FF03C0E9
:10032000112319F006C0112321F080E563E50E9436
:10033000F7001F910895682F85E20E94F700089545
:10034000CF92DF92EF92FF920F931F93DF93CF93A1
:10035000CDB7DEB72D970FB6F894DEBF0FBECDBF79
:100360008FE493EC0197F1F700C0000080E00E9459
:10037000890103EA10E0F8018081806261810E94B6
:10038000F7000E5F1F4FF0E00B3C1F07A1F734E3AF
:10039000C32EC98223E4D22EDA8290E1E92EEB82C9
:1003A000EC82FF24F394FD828AE28E010F5F1F4FDF
:1003B000B80145E00E943C0189E3898388E38A8390
:1003C00087E38B8386E38C8382EC8D838BE2B80199
:1003D00045E00E943C01C982DA82EB82EC82FD8218
:1003E00080E3B80145E00E943C018DE10E940B01D1
:1003F000882321F480E563E70E94F7008DE367E03E
:100400000E94F7008CE36FE30E94F70081E00E94F6
:10041000890100E610E090E07E010894E11CF11CE7
:10042000F80121913191419151918F0129833A83B2
:100430004B835C83892F8062B70144E09D870E94D3
:100440003C019D859F5F993059F784E8E82E80E054
:10045000F82E8E010F5F1F4FF701219131914191CD
:1004600051917F0159834A833B832C83892F80627A
:10047000B80144E09D870E943C019D859F5F9E30AE
:1004800059F7E8E9F0E0D80181918D9380E0E33AF3
:10049000F807D1F78EE28E010F5F1F4FB8014BE0D6
:1004A0000E943C0186E98A8382E88B838BE18C83FE
:1004B0008FED898384E2B80144E00E943C01898188
:1004C000897F898384E2B80144E00E943C01E3ED26
:1004D000F0E33197F1F700C0000080E00E9489014D
:1004E0000E9464012D960FB6F894DEBF0FBECDBFFB
:1004F000CF91DF911F910F91FF90EF90DF90CF9000
:100500000895EF92FF921F93DF93CF930F92CDB791
:10051000DEB7182F7B0149830E947A0187E10E9490
:100520000B01498185FD0AC0812FB7010E943C0162
:1005300087EA91E60197F1F700C0000080E00F9094
:10054000CF91DF911F91FF90EF9008950F931F932C
:10055000CF93DF93EC0187E00E940B01082F86FF09
:1005600016C080E60E940B01182F813230F481E61C
:10057000BE01412F0E94150104C082EE60E00E947E
:10058000F70087E10E940B0180FFEBCF01C010E074
:1005900087E2602F0E94F700812FDF91CF911F919A
:0805A0000F910895F894FFCFBC
:1005A800404B01E2C04B0000D0FC8C02990039415D
:1005B800D996821B24027FA60000000000000000DC
:1005C8000000000000000000000000000000000023
:1005D800007312000080B446412008048120CFF740
:1005E800FEFFFF000F013F023F030304FF05330630
:1005F800270707080009000CC30DC40EC50FC61154
:10060800201220132014201520162017001C3F1D2F
:0C06180007344310100139383736C20097
:00000001FF
