:1000000012C02CC02BC02AC029C028C027C026C0BF
:1000100030C024C023C022C021C020C01FC01EC0C9
:100020001DC01CC01BC011241FBECFE5D4E0DEBF25
:10003000CDBF10E0A0E6B0E0E0EDF4E002C0059036
:100040000D92A03EB107D9F711E0A0EEB0E001C0DB
:100050001D92A130B107E1F73FD038C2D1CF84E083
:100060008EBD8EEC9FEF9DBD8CBD89B7846089BF2E
:1000700008951F920F920FB60F9211248F939F93A2
:10008000AF93BF9380B38823A9F48091640081303B
:1000900021F4A8981092640004C0A89A81E080938B
:1000A00064008FE79AE1A6E081509040A040E1F71C
:1000B00000C000008CE09EEF9DBD8CBD84E08EBD35
:1000C00089B7846089BFBF91AF919F918F910F9045
:1000D0000FBE0F901F9018950F931F938FE59AEE08
:1000E000A0E081509040A040E1F700C000002BD07C
:1000F000A09AA89ACBD083E099D197D011BA84E086
:1001000082BBADDF789485B7806885BF01E08091C0
:100110006400882319F4A8988895F9CF97D014E043
:1001200095D080EB60E670E044E088D17ED0ABE70C
:10013000B2E91197F1F700C0000085B3802785BBB5
:10014000115071F7E4CF18BA8EE387BB80E58DB903
:100150001EB81EB808958FB9779BFECF8FB1089552
:10016000DF93CF930F92CDB7DEB7C2986983F3DFE9
:10017000809300016981862FEEDFC29A0F90CF91A4
:10018000DF910895C298E7DF8093000180E0E3DF0C
:10019000C29A0895EF92FF920F931F93DF93CF932C
:1001A0000F92CDB7DEB7162F042FC2987983D3DF15
:1001B0007981412F572F7A0105C080E0CCDFF7010C
:1001C00081937F018E2D811B8017B8F3C29A0F9007
:1001D000CF91DF911F910F91FF90EF900895EF92D3
:1001E000FF920F931F93DF93CF930F92CDB7DEB79C
:1001F000162F042FC2987983AEDF80930001798196
:10020000412F572F7A0104C0F70181917F01A3DFAD
:100210008E2D811B8017C0F3C29A0F90CF91DF9172
:100220001F910F91FF90EF90089582EE60E098DFAC
:1002300087E0A8DF682F87E293DFC19880E0A2DF24
:10024000682F616080E28CDFC19A089581EE60E0E2
:1002500087DFC19880E096DF682F6E7F80E280DFC5
:10026000C19A08951F93182F87E08CDF87FF03C082
:10027000112319F005C0112319F080E563E570DF43
:100280001F910895682F85E26BDF0895CF92DF926A
:10029000EF92FF920F931F93DF93CF93CDB7DEB70B
:1002A0002D970FB6F894DEBF0FBECDBF8FE493EC51
:1002B0000197F1F700C0000080E0D4DF08EA10E009
:1002C000F8018081806261814BDF0E5F1F4FF0E09B
:1002D000003D1F07A9F734E3C32EC98223E4D22EC1
:1002E000DA8290E1E92EEB82EC82FF24F394FD8226
:1002F0008AE28E010F5F1F4FB80145E070DF89E38E
:10030000898388E38A8387E38B8386E38C8382EC0B
:100310008D838BE2B80145E062DFC982DA82EB822D
:10032000EC82FD8280E3B80145E059DF8DE12ADFF0
:10033000882319F480E563E713DF8DE367E010DFBE
:100340008CE36FE30DDF81E08DDF05E610E090E0E8
:100350007E010894E11CF11CF80121913191419139
:1003600051918F0129833A834B835C83892F80626B
:10037000B70144E09D8733DF9D859F5F993061F72A
:1003800089E8E82E80E0F82E8E010F5F1F4FF701FD
:1003900021913191419151917F0159834A833B834E
:1003A0002C83892F8062B80144E09D8718DF9D85EA
:1003B0009F5F9E3061F7EDE9F0E0D80181918D9368
:1003C00080E0E83AF807D1F78EE28E010F5F1F4F09
:1003D000B8014BE004DF86E98A8382E88B838BE1F6
:1003E0008C838FED898384E2B80144E0F8DE898153
:1003F000897F898384E2B80144E0F1DEE3EDF0E334
:100400003197F1F700C0000080E02CDF0EDF2D9661
:100410000FB6F894DEBF0FBECDBFCF91DF911F9115
:100420000F91FF90EF90DF90CF900895682F660FA7
:10043000696F677286E294DEF8DE0895EF92FF92AC
:100440001F93DF93CF930F92CDB7DEB7182F7B01A9
:100450004983FCDE87E196DE498185FD09C0812F55
:10046000B701BDDE87EA91E60197F1F700C0000011
:1004700080E00F90CF91DF911F91FF90EF90089552
:100480000F931F93CF93DF93EC0187E07BDE082F60
:1004900086FF12C080E676DE182F813228F481E6CE
:1004A000BE01412F77DE03C082EE60E059DE87E1B6
:1004B00069DE80FFEFCF01C010E087E2602F50DEE1
:1004C000812FDF91CF911F910F910895F894FFCF65
:1004D0002A00FF2A01404B01E2C04B0000D0FC8CF7
:1004E0000299003941D996821B24027FA6000000A0
:1004F00000000000000000000000000000000000FC
:100500000000000000007312000080B44641200883
:10051000048120CFF7FEFFFF000F013F023F0303DE
:100520000400050B06270707080009000CC30DC4CB
:100530000EC50FC6112012201320142015201620DE
:1005400017001C3F1D07344310100139383736C2DD
:00000001FF
